:020000040000FA
:100C000040EF10F0D9CFE5FFE1CFD9FF00C0E5FFFD
:100C100001C0E5FF02C0E5FF03C0E5FF04C0E5FF3A
:100C2000020EDBCF00F0030EDBCF01F0DC0E002460
:100C3000026E036A230E0322046A000E042202C01D
:100C4000F6FF03C0F7FF04C0F8FF0900F5CF02F07C
:100C5000050E025CD8B0F8D0FA6AFB6A0234FA36A4
:100C6000E834FA36FC0B760FE56E0C0EFA22000E15
:100C7000FB22E450F96E45EF06F072EF06F09FEFAD
:100C800006F0CCEF06F0F9EF06F0015015E0BE0ECD
:100C90000024026E036A230E0322046A000E04225B
:100CA00002C0F6FF03C0F7FF04C0F8FF0900F5CF4C
:100CB00002F002508912C8D0BE0E0024026E036AF0
:100CC000230E0322046A000E042202C0F6FF03C0B2
:100CD000F7FF04C0F8FF0900F5CF02F00250FF084B
:100CE0008916B2D0015015E0BE0E0024026E036AD0
:100CF000230E0322046A000E042202C0F6FF03C082
:100D0000F7FF04C0F8FF0900F5CF02F002508A1285
:100D10009BD0BE0E0024026E036A230E0322046AD7
:100D2000000E042202C0F6FF03C0F7FF04C0F8FF64
:100D30000900F5CF02F00250FF088A1685D0015055
:100D400015E0BE0E0024026E036A230E0322046A1D
:100D5000000E042202C0F6FF03C0F7FF04C0F8FF34
:100D60000900F5CF02F002508B126ED0BE0E0024A7
:100D7000026E036A230E0322046A000E042202C0DC
:100D8000F6FF03C0F7FF04C0F8FF0900F5CF02F03B
:100D90000250FF088B1658D0015015E0BE0E0024FB
:100DA000026E036A230E0322046A000E042202C0AC
:100DB000F6FF03C0F7FF04C0F8FF0900F5CF02F00B
:100DC00002508C1241D0BE0E0024026E036A230E24
:100DD0000322046A000E042202C0F6FF03C0F7FFDC
:100DE00004C0F8FF0900F5CF02F00250FF088C168E
:100DF0002BD0015015E0BE0E0024016E026A230EB6
:100E00000222036A000E032201C0F6FF02C0F7FFB0
:100E100003C0F8FF0900F5CF01F001508D1214D086
:100E2000016A026ABE0E0026230E0122000E022273
:100E300000C0F6FF01C0F7FF02C0F8FF0900F5CFC0
:100E400000F00050FF088D16E4CF04F0E4CF03F06B
:100E5000E4CF02F0E4CF01F0E4CF00F0E4CFD9FF1B
:100E60001200D9CFE5FFE1CFD9FF00C0E5FF01C0F7
:100E7000E5FF02C0E5FF03C0E5FF04C0E5FF020E89
:100E8000DBCF00F0030EDBCF01F0DC0E0024026E9E
:100E9000036A230E0322046A000E042202C0F6FF36
:100EA00003C0F7FF04C0F8FF0900F5CF02F0050EFC
:100EB000025CD8B0F8D0FA6AFB6A0234FA36E83439
:100EC000FA36FC0BD40FE56E0E0EFA22000EFB2252
:100ED000E450F96E74EF07F0A1EF07F0CEEF07F0E2
:100EE000FBEF07F028EF08F0015015E0BE0E0024DC
:100EF000026E036A230E0322046A000E042202C05B
:100F0000F6FF03C0F7FF04C0F8FF0900F5CF02F0B9
:100F100002509212C8D0BE0E0024026E036A230E45
:100F20000322046A000E042202C0F6FF03C0F7FF8A
:100F300004C0F8FF0900F5CF02F00250FF08921636
:100F4000B2D0015015E0BE0E0024026E036A230EDB
:100F50000322046A000E042202C0F6FF03C0F7FF5A
:100F600004C0F8FF0900F5CF02F0025093129BD0A5
:100F7000BE0E0024026E036A230E0322046A000ED2
:100F8000042202C0F6FF03C0F7FF04C0F8FF090007
:100F9000F5CF02F00250FF08931685D0015015E0FE
:100FA000BE0E0024026E036A230E0322046A000EA2
:100FB000042202C0F6FF03C0F7FF04C0F8FF0900D7
:100FC000F5CF02F0025094126ED0BE0E0024026ED5
:100FD000036A230E0322046A000E042202C0F6FFF5
:100FE00003C0F7FF04C0F8FF0900F5CF02F002507C
:100FF000FF08941658D0015015E0BE0E0024026E72
:10100000036A230E0322046A000E042202C0F6FFC4
:1010100003C0F7FF04C0F8FF0900F5CF02F002504B
:10102000951241D0BE0E0024026E036A230E0322E5
:10103000046A000E042202C0F6FF03C0F7FF04C0DA
:10104000F8FF0900F5CF02F00250FF0895162BD0EB
:10105000015015E0BE0E0024016E026A230E02222A
:10106000036A000E032201C0F6FF02C0F7FF03C0AF
:10107000F8FF0900F5CF01F00150961214D0016A73
:10108000026ABE0E0026230E0122000E022200C0BC
:10109000F6FF01C0F7FF02C0F8FF0900F5CF00F02E
:1010A0000050FF089616E4CF04F0E4CF03F0E4CF3D
:1010B00002F0E4CF01F0E4CF00F0E4CFD9FF12005A
:1010C000D9CFE5FFE1CFD9FF00C0E5FF01C0E5FFC3
:1010D00002C0E5FF03C0E5FF04C0E5FF05C0E5FF72
:1010E00006C0E5FF07C0E5FF020EDBCF00F0030EF0
:1010F000DBCF01F0040EDBCF02F0050EDBCF03F0F7
:10110000060EDBCF04F0070EDBCF05F0080EDBCFB9
:1011100006F0090EDBCF07F000500201136F0150FB
:10112000146F0250156F0350166F04500201176FB1
:101130000550186F0650196F07501A6F02011351AE
:1011400002011903F4CF01F0F3CF00F000500201C7
:101150001D6F01501E6F0201135102011703F4CFDE
:1011600001F0F3CF00F0005002011B6F01501C6F23
:101170000201165102011703F3CF00F002011E51C4
:10118000002600501E6F0201155102011803F3CF13
:1011900000F002011E51002600501E6F0201155181
:1011A00002011703F4CF01F0F3CF00F002011D514B
:1011B00000261E51012200501D6F01501E6F0201BA
:1011C000145102011803F4CF01F0F3CF00F0020133
:1011D0001D5100261E51012200501D6F01501E6F2F
:1011E0000201145102011903F3CF00F00050020173
:1011F000226F0201145102011703F4CF01F0F3CF63
:1012000000F000500201206F0150216F02011351C4
:1012100002011A03F3CF00F000500201266F020111
:10122000135102011803F4CF01F0F3CF00F0005086
:101230000201246F0150256F02011F6B0201236B15
:1012400002011F5102011B25006E02012051020103
:101250001C21016E0201215102011D21026E0201B9
:10126000225102011E21036E00501B6F01501C6FA2
:1012700002501D6F03501E6F0201235102011B25F6
:10128000006E0201245102011C21016E0201255150
:1012900002011D21026E0201265102011E21036E70
:1012A00003C0E9FF02C0F4FF01C0F3FF0050E4CF28
:1012B00007F0E4CF06F0E4CF05F0E4CF04F0E4CF8C
:1012C00003F0E4CF02F0E4CF01F0E4CF00F0E4CF8C
:1012D000D9FF1200D9CFE5FFE1CFD9FF00C0E5FF6C
:1012E00001C0E5FF02C0E5FF03C0E5FF04C0E5FF64
:1012F00005C0E5FF06C0E5FF07C0E5FF08C0E5FF44
:1013000009C0E5FF0AC0E5FF0BC0E5FF0CC0E5FF23
:101310000DC0E5FF0EC0E5FF0FC0E5FF020EDBCFFD
:1013200000F0030EDBCF01F0040EDBCF02F0050E60
:10133000DBCF03F0060EDBCF04F0070EDBCF05F0AA
:10134000080EDBCF06F0090EDBCF07F00A0EDBCF6D
:1013500008F00B0EDBCF09F00C0EDBCF0AF00D0E00
:10136000DBCF0BF00B50800FF36E0750800FF35C58
:1013700008E106500A5C05E10550095C02E10450F1
:10138000085C18E208C00CF009C00DF00AC00EF0AD
:101390000BC00FF004C008F005C009F006C00AF049
:1013A00007C00BF00CC004F00DC005F00EC006F035
:1013B0000FC007F00B50800FF36E0350800FF35CEB
:1013C00008E102500A5C05E10150095C02E10050AD
:1013D000085C08E20BC0E9FF0AC0F4FF09C0F3FF94
:1013E00008501FD00350800FF36E0750800FF35C3E
:1013F00008E10650025C05E10550015C02E1045081
:10140000005C08E207C0E9FF06C0F4FF05C0F3FF77
:10141000045007D003C0E9FF02C0F4FF01C0F3FF8E
:101420000050E4CF0FF0E4CF0EF0E4CF0DF0E4CFA6
:101430000CF0E4CF0BF0E4CF0AF0E4CF09F0E4CFF6
:1014400008F0E4CF07F0E4CF06F0E4CF05F0E4CFF6
:1014500004F0E4CF03F0E4CF02F0E4CF01F0E4CFF6
:1014600000F0E4CFD9FF1200D9CFE5FFE1CFD9FFDB
:1014700000C0E5FF01C0E5FF02C0E5FF03C0E5FFD6
:1014800004C0E5FF05C0E5FF06C0E5FF07C0E5FFB6
:1014900008C0E5FF09C0E5FF0AC0E5FF0BC0E5FF96
:1014A0000CC0E5FF020EDBCF00F0030EDBCF01F036
:1014B000040EDBCF02F0050EDBCF03F0060EDBCF10
:1014C00004F0070EDBCF05F0080EDBCF06F0090EA7
:1014D000DBCF07F0D88003AED890086A08360850F2
:1014E0000FE0031C0C6E021C0B6E011C0A6E001C2C
:1014F000096E092A0DE10A2A0BE10B4A0C2A08D0D1
:1015000000C009F001C00AF002C00BF003C00CF0EB
:10151000D88007AED8900FE3071C036E061C026E3E
:10152000051C016E041C006E002A0DE1012A0BE16E
:10153000024A032A08D004C000F005C001F006C02A
:1015400002F007C003F00350E56E0250E56E015053
:10155000E56E0050E56E0C50E56E0B50E56E0A50DE
:10156000E56E0950E56EAFEC0BF0006EF3CF01F0C5
:10157000F4CF02F0E9CF03F0080EE126085016E0A0
:10158000031C076E021C066E011C056E001C046E17
:10159000042A04E1052A02E1064A072A07C0E9FFF6
:1015A00006C0F4FF05C0F3FF045007D003C0E9FFF5
:1015B00002C0F4FF01C0F3FF0050E4CF0CF0E4CF11
:1015C0000BF0E4CF0AF0E4CF09F0E4CF08F0E4CF69
:1015D00007F0E4CF06F0E4CF05F0E4CF04F0E4CF69
:1015E00003F0E4CF02F0E4CF01F0E4CF00F0E4CF69
:1015F000D9FF1200D9CFE5FFE1CFD9FF00C0E5FF49
:1016000001C0E5FF02C0E5FF03C0E5FF04C0E5FF40
:1016100005C0E5FF06C0E5FF07C0E5FF020EDBCF12
:1016200000F0030EDBCF01F0026AF2BE022A036A69
:10163000F2BC032A03500226E56AE56A0F0EE56E46
:10164000A00EE56E02010351E56E0251E56E0151F7
:10165000E56E0051E56E4CEC0CF0036EF3CF04F038
:10166000080EE126DE0E0326D8B0042A03C005F0DA
:1016700004C006F0E56AE56A070EE56E050EE56E44
:10168000E56AE56A0650E56E0550E56E4CEC0CF037
:10169000056E080EE12605C006F0070EE56E050E84
:1016A000E56EE56A0650E56EDBEC0CF0066EF3CFF6
:1016B00007F0040EE1260650035E0750045A050E9B
:1016C0000326D8B0042AE56AE56AE56A070EE56EE6
:1016D000E56AE56A0450E56E0350E56E4CEC0CF0EB
:1016E000036E080EE126025002E0F29EF29C032AED
:1016F0000528046E0050FF0F056EFF0E0120066ED8
:1017000005C000F006C001F00550061011E003C04E
:1017100005F004C006F00604076E07C006F0075087
:10172000E9E00504076E07C005F00750F4E0F9D7BB
:10173000025002E0F28EF28CE4CF07F0E4CF06F024
:10174000E4CF05F0E4CF04F0E4CF03F0E4CF02F0FF
:10175000E4CF01F0E4CF00F0E4CFD9FF1200D9CFFD
:10176000E5FFE1CFD9FF00C0E5FF01C0E5FF02C002
:10177000E5FF03C0E5FF04C0E5FF05C0E5FF06C0C7
:10178000E5FF07C0E5FF08C0E5FF09C0E5FF0AC0A7
:10179000E5FF020EDBCF00F0030EDBCF01F0040EFD
:1017A000DBCF02F0050EDBCF03F0060EDBCF04F03B
:1017B000070EDBCF05F0080EDBCF06F0090EDBCFFE
:1017C00007F0086A045005100610071005E1E968E3
:1017D000F468F368E86847D0096A0750800BE8446A
:1017E0000A6E0A501BE104500426053606360736F9
:1017F0000750035C08E10650025C05E10550015CFE
:1018000002E10450005C06E2D8900732063205324D
:10181000043204D0092A09C008F0DFD70750035C5E
:1018200008E10650025C05E10550015C02E104504C
:10183000005C08E30450005E0550015A0650025A4D
:101840000750035AD890073206320532043208C0D6
:1018500009F008060950E2E103C0E9FF02C0F4FF05
:1018600001C0F3FF0050E4CF0AF0E4CF09F0E4CF69
:1018700008F0E4CF07F0E4CF06F0E4CF05F0E4CFC2
:1018800004F0E4CF03F0E4CF02F0E4CF01F0E4CFC2
:1018900000F0E4CFD9FF1200D9CFE5FFE1CFD9FFA7
:1018A00000C0E5FF01C0E5FF02C0E5FF03C0E5FFA2
:1018B00004C0E5FF05C0E5FF06C0E5FF07C0E5FF82
:1018C00008C0E5FF09C0E5FF0AC0E5FF0BC0E5FF62
:1018D0000CC0E5FF020EDBCF00F0030EDBCF01F002
:1018E000040EDBCF02F0050EDBCF03F0060EDBCFDC
:1018F00004F0070EDBCF05F0080EDBCF06F0090E73
:10190000DBCF07F0086A096A0A6A0B6A04500510FF
:10191000061007102CE0010E0C6E07B607D004501D
:1019200004260536063607360C2AF7D7085008264F
:1019300009360A360B360750035C08E10650025C94
:1019400005E10550015C02E10450005C09E304502C
:10195000005E0550015A0650025A0750035A08808B
:10196000D89007320632053204320C2EDFD70BC076
:10197000E9FF0AC0F4FF09C0F3FF0850E4CF0CF000
:10198000E4CF0BF0E4CF0AF0E4CF09F0E4CF08F0A5
:10199000E4CF07F0E4CF06F0E4CF05F0E4CF04F0A5
:1019A000E4CF03F0E4CF02F0E4CF01F0E4CF00F0A5
:1019B000E4CFD9FF1200D9CFE5FFE1CFD9FF00C0B6
:1019C000E5FF01C0E5FF02C0E5FF03C0E5FF04C07D
:1019D000E5FF020EDBCF27F2030EDBCF28F2040E69
:1019E000DBCF29F2050EDBCF2AF2270E006E020EA6
:1019F000016E00C0E9FF01C0EAFFEFCF00F0290E41
:101A0000016E020E026E01C0E9FF02C0EAFFEFCFD5
:101A100001F000500102F4CF02F0F3CF00F0270EE6
:101A2000016E020E036E01C0E9FF03C0EAFFEFCFB3
:101A300001F0290E036E020E046E034A042A03C04D
:101A4000E9FF04C0EAFFEFCF03F001500302F3CF38
:101A500001F00150016A046E015000260450022278
:101A6000270E016E020E036E014A032A01C0E9FF30
:101A700003C0EAFFEFCF01F0290E036E020E046EE1
:101A800003C0E9FF04C0EAFFEFCF03F001500302F7
:101A9000F3CF01F00150016A046E0150002604509A
:101AA000022202C0F3FF0050E4CF04F0E4CF03F0C1
:101AB000E4CF02F0E4CF01F0E4CF00F0E4CFD9FFAF
:101AC0001200D9CFE5FFE1CFD9FF00C0E5FF01C08B
:101AD000E5FF02C0E5FF03C0E5FF04C0E5FF05C068
:101AE000E5FF06C0E5FF07C0E5FF08C0E5FF09C048
:101AF000E5FF020EDBCF00F0030EDBCF01F0040E9A
:101B0000DBCF02F0050EDBCF03F0060EDBCF04F0D7
:101B1000070EDBCF05F0080EDBCF06F0090EDBCF9A
:101B200007F00A0EDBCF08F00B0EDBCF09F00250F6
:101B3000005E0350015A0650085E0750095A0950CA
:101B4000E56E0850E56E0150E56E0050E56EF0EC74
:101B50000FF0006EF3CF01F0040EE1260250045C9A
:101B6000026E03500558E56E0250E56E0150E56EB9
:101B70000050E56EDFEC0DF0006EF3CF01F0040EC7
:101B8000E126005006260150072207C0F3FF065049
:101B9000E4CF09F0E4CF08F0E4CF07F0E4CF06F09B
:101BA000E4CF05F0E4CF04F0E4CF03F0E4CF02F09B
:101BB000E4CF01F0E4CF00F0E4CFD9FF1200D9CF99
:101BC000E5FFE1CFD9FF00C0E5FF01C0E5FF02C09E
:101BD000E5FF03C0E5FF04C0E5FF05C0E5FF06C063
:101BE000E5FF07C0E5FF020EDBCF00F0030EDBCF01
:101BF00001F0040EDBCF02F0050EDBCF03F0D8803E
:101C000001AED890046A0436045007E0011C066E49
:101C1000001C056E054A062A04D000C005F001C06C
:101C200006F0D88003AED890006A0036005007E076
:101C3000031C076E021C016E014A072A04D002C071
:101C400001F003C007F00750E56E0150E56E065045
:101C5000E56E0550E56E98EC0FF0016EF3CF02F0E3
:101C6000040EE1260050041A04500AE0021C036E20
:101C7000011C006E004A032A03C0F3FF005003D08A
:101C800002C0F3FF0150E4CF07F0E4CF06F0E4CF49
:101C900005F0E4CF04F0E4CF03F0E4CF02F0E4CFAA
:101CA00001F0E4CF00F0E4CFD9FF1200D9CFE5FF77
:101CB000E1CFD9FF00C0E5FF01C0E5FF02C0E5FFAD
:101CC00003C0E5FF04C0E5FF05C0E5FF06C0E5FF72
:101CD000020EDBCF00F0030EDBCF01F0040EDBCFF2
:101CE00002F000C0E9FF01C0F3FF0250BFEC11F0A9
:101CF000036EF3CF04F0F4CF05F0E9CF06F0065001
:101D0000E56E0550E56E0450E56E0350E56E410E3C
:101D1000E56EC60EE56E4E0EE56E6D0EE56E60EC80
:101D200008F0036EF3CF04F0F4CF05F0E9CF06F02E
:101D3000080EE126390E0326300E0422000E05227D
:101D4000062203C0E5FF04C0F4FF05C0F6FF06C08D
:101D5000F7FF00C0E9FF01C0F3FF025084EC12F06E
:101D6000069E06C0E9FF05C0F4FF04C0F3FF035060
:101D7000E4CF06F0E4CF05F0E4CF04F0E4CF03F0C5
:101D8000E4CF02F0E4CF01F0E4CF00F0E4CFD9FFDC
:101D90001200D9CFE5FFE1CFD9FF00C0E5FF01C0B8
:101DA000E5FF02C0E5FF03C0E5FF04C0E5FF05C095
:101DB000E5FF06C0E5FF020EDBCF00F0030EDBCF30
:101DC00001F0040EDBCF02F000C0E9FF01C0F3FF19
:101DD0000250BFEC11F002010F6FF3CF10F2F4CFFD
:101DE00011F2E9CF12F2800EE56E020EE56E0F0ED3
:101DF000E56E56EC0EF0036EF3CF04F0F4CF05F071
:101E0000E9CF06F0030EE12603C0E5FF04C0F4FFAE
:101E100005C0F6FF06C0F7FF00C0E9FF01C0F3FFF1
:101E2000025084EC12F000C0E9FF01C0F3FF025041
:101E3000BFEC11F0F3CF01F0F4CF02F0E9CF03F0E3
:101E400003C0E9FF02C0F4FF01C0F3FFE4CF06F0D6
:101E5000E4CF05F0E4CF04F0E4CF03F0E4CF02F0E8
:101E6000E4CF01F0E4CF00F0E4CFD9FF1200D9CFE6
:101E7000E5FFE1CFD9FF00C0E5FF01C0E5FF02C0EB
:101E8000E5FF03C0E5FF04C0E5FF05C0E5FF06C0B0
:101E9000E5FF07C0E5FF08C0E5FF020EDBCF00F05D
:101EA000030EDBCF01F0040EDBCF02F0050EDBCF1B
:101EB00003F096EC11F0046EF3CF05F0F4CF06F0CA
:101EC000E9CF07F0E86A03BEFF0E086EE56E085022
:101ED000E56E0350E56E0250E56E0750E56E065064
:101EE000E56E0550E56E0450E56E34EC0AF0026EC6
:101EF000F3CF03F0080EE1260050025E0150035AB2
:101F000003C0F3FF0250E4CF08F0E4CF07F0E4CFC2
:101F100006F0E4CF05F0E4CF04F0E4CF03F0E4CF23
:101F200002F0E4CF01F0E4CF00F0E4CFD9FF1200DB
:101F3000D9CFE5FFE1CFD9FF00C0E5FF01C0E5FF44
:101F400002C0E5FF03C0E5FF04C0E5FF05C0E5FFF3
:101F500006C0E5FF07C0E5FF020EDBCF00F0030E71
:101F6000DBCF01F0040EDBCF02F0050EDBCF03F078
:101F7000046A056A100E066E0150800BE844076E75
:101F80000050002601360450042605360750D8A418
:101F900004800350055C02E10250045C05E302503A
:101FA000045E0350055A00800604076E07C006F061
:101FB0000750E2E101C0F3FF0050E4CF07F0E4CFA7
:101FC00006F0E4CF05F0E4CF04F0E4CF03F0E4CF73
:101FD00002F0E4CF01F0E4CF00F0E4CFD9FF12002B
:101FE000D9CFE5FFE1CFD9FF00C0E5FF01C0E5FF94
:101FF00002C0E5FF03C0E5FF020EDBCF00F0030ED9
:10200000DBCF01F0040EDBCF02F0050EDBCF03F0D7
:10201000005002012B6F01502C6F025002012D6FF6
:1020200003502E6F02012B5102012D03F4CF01F05A
:10203000F3CF00F0005002012F6F0150306F02010A
:102040002B5102012E03F3CF00F002012C510201AB
:102050002D03F3CF01F0015000260201305100267C
:102060000050306F30C2F3FF2F51E4CF03F0E4CFC4
:1020700002F0E4CF01F0E4CF00F0E4CFD9FF12008A
:1020800011EEFFF021EEFFF0F86AA68EA69C6C0E12
:10209000F66E250EF76E000EF86E0900F5CF05F00E
:1020A0000900F5CF06F034D00900F5CF00F00900A3
:1020B000F5CF01F00900F5CF02F009000900F5CFD6
:1020C000E9FF0900F5CFEAFF090009000900F5CF93
:1020D00003F00900F5CF04F009000900F6CF07F07E
:1020E000F7CF08F0F8CF09F000C0F6FF01C0F7FF06
:1020F00002C0F8FF03D00900F5CFEEFF0306FBE2B4
:102100000406F9E207C0F6FF08C0F7FF09C0F8FFB0
:102110000506CAE20606C8E219EC12F0FFD7D9CFCD
:10212000E5FFE1CFD9FF00C0E5FF01C0E5FF02C038
:10213000E5FF03C0E5FF020EDBCF00F00D0E005CF3
:102140000BE3150E005C08E2F30E0024016E01445F
:10215000E844FC0BC26E07D0060E005C04E20044AB
:10216000E844FC0BC26EC280090E006E016A0000DA
:10217000FF0E0026012200500110F9E1C282C2B216
:10218000FED7C4CF00F0016A0050036E026AC3CFCD
:1021900000F0016A0050022601500322C29003C0E1
:1021A000F3FF0250E4CF03F0E4CF02F0E4CF01F0FC
:1021B000E4CF00F0E4CFD9FF1200D9CFE5FFE1CFA3
:1021C000D9FF00C0E5FF01C0E5FF02C0E5FF03C085
:1021D000E5FF020EDBCF00F0030EDBCF01F0040EB3
:1021E000DBCF02F000500B0A17E000500C0A25E18B
:1021F0000C0EBD6ED8900230036E0130006ED89088
:10220000033200320050BE6E0150006E030E001605
:102210000038F00BBD1211D00C0EBA6ED8900230FF
:10222000036E0130006ED890033200320050BB6E56
:10223000030E01160138F00BBA129E92E4CF03F0A0
:10224000E4CF02F0E4CF01F0E4CF00F0E4CFD9FF17
:10225000120000C0E5FF02010451E56E8FEC10F0A2
:102260000201086FF3CF09F2E65202010651006E37
:10227000010EE56E0050E56E02EC06F0E652E65205
:1022800002010851FF08006E030E0955E56E00506B
:10229000E56EFAEC0AF0E652E65202010651E56AF2
:1022A000E56E02EC06F0E652E65202010851FF0824
:1022B000006E030E0955E56E0050E56EFAEC0AF06B
:1022C000E652E652E4CF00F01200D9CFE5FFE1CFAD
:1022D000D9FF00C0E5FF01C0E5FF02C0E5FF03C074
:1022E000E5FF020EDBCF00F0030EDBCF01F0D8805C
:1022F00001AED89009E30050026E0150036E031E38
:10230000026CD8B4032A04D000C002F001C003F06C
:1023100003C0F3FF0250E4CF03F0E4CF02F0E4CFB8
:1023200001F0E4CF00F0E4CFD9FF120000C0E5FFD8
:1023300001C0E5FF02C0E5FF03C0E5FF800EE56ECA
:10234000020EE56E0B0EE56E56EC0EF0006EF3CF4E
:1023500001F0F4CF02F0E9CF03F0030EE12603C051
:10236000E9FF02C0F4FF01C0F3FF0050E4CF03F027
:10237000E4CF02F0E4CF01F0E4CF00F01200E8AEC9
:102380000AD0F3CFEAFFEE50EECFF3FFEECFF4FF2B
:10239000EECFE9FF1200E8BCC6EF12F0E9CFF6FF7E
:1023A000F3CFF7FFF86E0900F5500900F5CFF3FF02
:1023B0000900F5CFF4FF0900F5CFE9FF1200010293
:1023C000040810204080408001020401020408201B
:1023D00001020401020408102040801001010101E3
:1023E00001010101020202020200000000000404D7
:1023F00004030303030303030300F2CFEAFFF29E87
:10240000A69EA69CA684E9CFA9FFE4CFA8FFAEECC8
:1024100012F0F4CFA8FFAEEC12F0F6CFA8FFAEECAE
:1024200012F0F7CFA8FFAEEC12F0A694EABEF28E3F
:102430001200D08ED0B202D0D082D080D350030B05
:10244000800F7E0F02E3D3A4FED749EC12F0BDEC5F
:1024500012F0A6EC12F095EC12F029EC11F0FDD779
:102460001200F2CFF6FFF29EA69EA69CE9CFA9FF2E
:10247000A680A850A92AA680A8CFF3FFA92AA680E3
:10248000A8CFF4FFA92AA680A8CFEAFFF6BEF28E55
:102490001200896A8A6A8B6A8C6A8D6A926A936A68
:1024A000949094929494949C949E956A966A806A6F
:1024B000816A826A836A846A1200D9CFE5FFE1CF1C
:1024C000D9FF00C0E5FF020EDBCF00F0005004E0B2
:1024D0000050010A01E1C188E4CF00F0E4CFD9FF48
:1024E0001200D9CFE5FFE1CFD9FF020EDBCF0BF20F
:1024F000030EDBCF0CF2040EDBCF0DF2050EDBCFAB
:102500000EF2E4CFD9FF1200E8AE0BD0F3CFEAFF12
:10251000E4CFEEFFF4CFEEFFF6CFEEFFF7CFEEFF06
:102520001200E8BCC8EF12F0120002010651E56A81
:10253000E56E31EC07F0E652E6521200006CDC0268
:102540000E000D0000000001000000002F0E92128E
:10255000070E9612C16EBD0EC06E1200550EA76E0C
:10256000AA0EA76EA682A6B2FED7A94A01003C25F4
:102570000000000200000F0000000F0EC16E070EE9
:10258000B46E1200CB68040ECA6E120031EF12F066
:04259000FDEF11F05A
:00000001FF
